:020000040800F2
:10000000080A0020413700085D3600085F36000806
:1000100000000000000000000000000000000000E0
:100020000000000000000000000000006136000831
:10003000000000000000000063360008653600087C
:100040000F1D0008000000004B1D0008AB1D00083C
:100050009B2400086D360008C3240008773600088A
:1000600000000000C72400085B28000833340008A3
:100070000B3700081737000865370008000000003C
:100080006737000869370008000000006B37000878
:100090006D3700086F3700087137000873370008A4
:1000A0007537000877370008793700087B37000874
:1000B0007D37000818B587B00121002000F0BAFB99
:1000C000002000F079FB002000F020FC364C0020DE
:1000D00000F0E4FB60720021344800F091FC06A9B6
:1000E00004A800F0E9FD00F00EFE642000F09CFE84
:1000F0006846007C312801DB01202072230004AA1D
:10010000521C0621802000F0A3FE6079C02101402E
:10011000C02900D0FEE700F0F4FE207A01280CD1BF
:1001200005A8801C019004A8801C009005AB072244
:100130000021012000F0F8FF07E005AB9B1C04AA9A
:10014000921C05A9012001F030F800BF19A0009011
:10015000072300226846418A808A00F07CFF00283D
:1001600000D0FEE70120039011480290002001908A
:1001700010200090072300220021012001F0BCF88C
:10018000002800D0FEE701F01DF9002800D0FEE7AE
:1001900001F082F9002800D0FEE70421012000F0E0
:1001A0008AFE08B010BD000000000020A317000860
:1001B00040E20100426C75654E524700F8B5A64C0E
:1001C0002078002803D001F0B5FA0020207000202C
:1001D00000F0FAFAA1480068002800D1DDE201F041
:1001E00031FB01F0ABFB01F033FB040001F030FB0D
:1001F00005009B4E2000C1170522002301F0AEFB35
:100200003200002301F0C3FB01F0F6FB0022954B06
:1002100001F020FC01F0F2FC934901F020FD01F017
:1002200077FD04B22800C1175022002301F096FB8D
:100230003200002301F0ABFB01F0DEFB00228B4B10
:1002400001F008FC01F0DAFC894901F008FD01F039
:100250005FFD210001F036FA86480468142C00D3B3
:100260000AE101F0F5FAA6490D68C1172200002342
:1002700001F074FB0322002301F070FB3200002325
:1002800001F085FB0A3028189D49086001F0E0FA6A
:100290009B494D68C1172200002301F05FFB052236
:1002A000002301F05BFB3200002301F070FB281AF1
:1002B0000A389349486001F0CBFA91498D68C1171B
:1002C0002200002301F04AFB0722002301F046FB35
:1002D0003200002301F05BFB0A302818884988604F
:1002E00001F0B6FAE7490D68C1172200002301F0BA
:1002F00035FB001849413200002301F048FB64300F
:100300002818E049086001F0A3FADE494D68C117DA
:100310002200002301F022FB8900820F114380009C
:100320003200002301F033FB281A6438D5494860B5
:1003300001F08EFAD3498D68C1172200002301F025
:100340000DFB0622002301F009FB3200002301F01F
:100350001EFB64302818CB49886001F079FAD8492F
:100360000D68C1172200002301F0F8FA03220023D0
:1003700001F0F4FA3200002301F009FBC01C281838
:10038000CF49086001F064FACD494D68C1172200D9
:10039000002301F0E3FA8900820F1143800032004C
:1003A000002301F0F4FA281AC01EC549486001F084
:1003B0004FFAC3498D68C1172200002301F0CEFA1D
:1003C0000522002301F0CAFA3200002301F0DFFA0F
:1003D000C01C2818BA49886001F03AFAB9490D687A
:1003E000C1172200002301F0B9FA0322002301F013
:1003F000B5FA3200002301F0CAFA281A6438B1496C
:10040000086001F025FAAF494D68C11722000023AA
:1004100001F0A4FA0522002301F0A0FA3200002323
:1004200001F0B5FA64302818A649486001F010FAC6
:10043000A4498D68C1172200002301F08FFA07221A
:10044000002301F08BFA3200002301F0A0FA281AF1
:1004500064389C49886010E12000002024000020BE
:10046000FFFFFF3F00003B400000204100408F4065
:100470000000C8420006002001F0EAF9204D29687A
:100480000091C1172200002301F068FA0322002323
:1004900001F064FA3200002301F079FA0099081A99
:1004A0000A38286001F0D4F969680091C117220068
:1004B000002301F053FA0522002301F04FFA320025
:1004C000002301F064FA0A3000990818686001F00E
:1004D000BFF9A9680091C1172200002301F03EFA7C
:1004E0000722002301F03AFA3200002301F04FFA0C
:1004F0000099081A0A38A86001F0AAF9614D01E0D4
:10050000C805002029680091C1172200002301F0CE
:1005100025FA001849413200002301F038FA009909
:10052000081A6438286001F093F969680091C117CE
:100530002200002301F012FA8900820F114380008B
:100540003200002301F023FA643000990818686033
:1005500001F07EF9A9680091C1172200002301F083
:10056000FDF90622002301F0F9F93200002301F021
:100570000EFA0099081A6438A86001F069F9504D24
:1005800029680091C1172200002301F0E7F9072232
:10059000002301F0E3F93200002301F0F8F900999B
:1005A000081AC01E286001F053F969680091C1174C
:1005B0002200002301F0D2F90922002301F0CEF934
:1005C0003200002301F0E3F9C01C009908186860AC
:1005D00001F03EF9A9680091C1172200002301F043
:1005E000BDF90322002301F0B9F93200002301F024
:1005F000CEF90099081AC01EA86001F029F9314D02
:1006000029680091C1172200002301F0A7F90722F1
:10061000002301F0A3F93200002301F0B8F9C8303B
:1006200000990818286001F013F969680091C11752
:100630002200002301F092F90322002301F08EF939
:100640003200002301F0A3F90099081A9638686077
:1006500001F0FEF8A9680091C1172200002301F003
:100660007DF90522002301F079F93200002301F021
:100670008EF90A3000990818A860114E014D4A4CB5
:1006800002E000BFD405002032002900200000F065
:1006900055FF0C4800F09FFF44490868401C086063
:1006A000282876D100200860FA27FF00206839004A
:1006B00001F04CFB002907D12168484205E000BF4A
:1006C000E0050020EC0500200A2020606068390069
:1006D00001F03CFB002902D16168484201E0092099
:1006E000C0436060A068390001F030FB002902D1EE
:1006F000A168484200E00A20A0606424286839000C
:1007000001F024FB002902D12968484200E064205E
:1007100028606868390001F019FB002902D1696876
:10072000484201E06320C0436860A868390001F0D6
:100730000DFB002901D1A8684442AC60032428685D
:10074000390001F003FB002902D13168484200E082
:10075000032030606868390001F0F8FA002902D1FE
:100760007168484201E00220C0437060A868390007
:1007700001F0ECFA002901D1B0684442B4600C48A1
:1007800001684A42026041684A42426081684A42C6
:100790008260FA20800000F047FB00F037FAF1BDDC
:1007A0000120044908707047C80500200006002099
:1007B000EC0500200406002080B500BF82A1800067
:1007C00008588047002002BD80B500BF7BA14200D1
:1007D000895A724A8000105801F016FC002002BDB0
:1007E00038B586B08024A4026D4D28682043286067
:1007F00028682040009000981422002101A801F0F0
:1008000017FC28682043286028680440009400985A
:100810009024E40500222021200001F0EFFB20209D
:1008200001900120029000200390049001A9200073
:1008300068E00000F1B50E000024684600788500ED
:1008400065A040598047012E26D15648694609784F
:10085000C90047180326F6435EA04159380001F04D
:10086000F9FB002808D100BF58A0425900213800E8
:1008700001F0E8FB002801D034000DE051A06946EA
:1008800009784656002200BF51A04159300001F0BE
:1008900018FC300001F019FC2000F2BD80B500BF4B
:1008A00047A14200895A404A8000105801F0A0FB3D
:1008B000401E8041C00F02BD80B50020FFF770FFD1
:1008C00001BD38B586B080242403354D2868204307
:1008D000286028682040009000981422002101A878
:1008E00001F0A6FB28682043286028680440009493
:1008F00000988020800101902C48029000200390F5
:1009000001A92B4801F052FA07B030BDF0B587B00D
:1009100000250024022801D301243AE0254984223D
:1009200042438918009124498000085800990860C2
:100930001B488021890282680A43826082680A40DB
:100940000692069A02680A43026000680140069116
:100950000698042001900220029003950327049733
:100960000126059601A99020C00501F01FFA082074
:1009700001900220029003950497059601A990200A
:10098000C00501F013FA009801F0C4FB002801D063
:100990000324E443200007B0F0BD00000C00002059
:1009A000141002401400002010000020000011105C
:1009B000000800482C0400201C000020200000003B
:1009C0000020000007000000E1070008B908000847
:1009D0000F0000000D000006C308000838B5040031
:1009E0000D0007E06946280001F0E6FB00992000B1
:1009F00001F0B9FB280001F0AAFB0028F2D031BDBC
:100A000038B5AA4C010000D0E0612000203001F090
:100A10009BFB2000283001F097FB01F0C4FC00256F
:100A2000E8B28C214843211830312000203001F0F9
:100A3000A4FB6D1CE8B20528F2DB2168002901D077
:100A400000208847A068002800D0804731BD974922
:100A500002680A60C268CA6002690A6182698A61C2
:100A6000806888607047F2B5A6B00500904E68882F
:100A7000304029888902014389B204910020009006
:100A800001A801F061FB894C09E003A9200028308E
:100A900001F089FB03992000203001F06EFB20005B
:100AA000203001F09BFB0228EFDBA8680590EF687F
:100AB000688806402888800230436946888103A8F8
:100AC000877006AE01203070032203A9701C01F06C
:100AD000D7FCFAB20599301D01F0D2FC2269002A38
:100AE00004D0FFB23F1DB9B206A8904726A80078EF
:100AF000002807D060E000992000203001F03DFB85
:100B00000020009000F09EFE060000F09BFE801B7F
:100B1000684988426AD22000283001F018FB00287A
:100B2000F3D169462000283001F03DFB00980830E1
:100B3000017804291DD100990B31009A8823D25CD9
:100B4000D21E40780E283AD00F2804D010284DD05D
:100B50003E283FD00DE08878CB781B061B0C18434D
:100B6000049B984242D168680F2813D00878002867
:100B70003CD12000203001F0EAFA002805D0200006
:100B8000283001F0E4FA0028B5D1009901A801F05D
:100B9000F4FAB5E76869824200D902006A612869FF
:100BA00001F06EFC00992000203001F0DCFA01A970
:100BB00020002830FFF712FF002027B0F0BD487852
:100BC0008B781B061B0C1843049B98420ED1C91C42
:100BD000D21EDFE708786B689842CAD1521E686956
:100BE000824200D902006A61491CD8E700980028B7
:100BF00004D001462000203001F0B5FA01A9200000
:100C00002830FFF7EBFE0020C043D6E71CB50020DC
:100C10000090264C0FE069462000283001F0C3FA0E
:100C2000E169002902D00098083088470099200027
:100C3000203001F0A2FA2000283001F088FA0028C4
:100C4000E9D013BD38B500240094184D2800203099
:100C500001F07DFA002825D169462800203001F0F6
:100C6000A2FAEA68002A1ED0802100980830904736
:100C7000010611D00099882288540098017A04292D
:100C80000AD1817A805CC01E814205D1009928007A
:100C9000283001F072FA06E000992800203001F0B7
:100CA00062FA00E00124200032BD00004000002074
:100CB000FF030000E90300003EB505000C0001A899
:100CC000009002AB9B1C02AA01A9891C02A8401C2F
:100CD00000F028F8010614D16946C988090A29706C
:100CE0006946C988090221806A4692881206120F55
:100CF00012010A432280694689880907090F1143B6
:100D00002180C0B23EBD00B587B0182101A801F016
:100D1000C5FB032001A90880488068460590012092
:100D200000F075F8F0B589B007000E0015001C0042
:100D30000921684601F0B2FB182103A801F0AEFBBF
:100D400003A8042101800121418000200590069024
:100D50006846079009200890002103A8FFF783FE4A
:100D6000002801D5FF2019E068460178002901D04C
:100D7000084613E00E9942783A7042883280027930
:100D80002A70427983791B061B0C1A432280C27990
:100D9000037A1B061B0C1A430A80002009B0F0BD21
:100DA00030B58FB004000D00202107A801F076FBBC
:100DB00007A80470202C00DB1F2422002900401CFF
:100DC00001F05EFB182101A801F068FB01A80821D1
:100DD00001800921418007A80390202004906846E3
:100DE000059001200690002101A8FFF73CFE002895
:100DF00001D5FF2001E0684600780FB030BD41808A
:100E000000A8401C039001200490694605910690BB
:100E1000002101A8FFF727FE002801D5FF2001E0EF
:100E20006846007807B000BD38B5050000F00AFD3F
:100E300004000020C043854202D0044800782D18E9
:100E400000F000FD001BA842FAD331BD28000020AD
:100E500078B5A7B00E0015001C006946087018216F
:100E600001A801F01BFB01A83F2101800D21418059
:100E7000684603900120049007A805908020069002
:100E8000002101A8FFF7EFFD002801D5FF2010E0A9
:100E900007A9087800280CD132000698401E287057
:100EA000C5B2AA4200D3C2B22000491C01F0E8FA40
:100EB000002028B070BD00B587B000AA921C107049
:100EC0005170182101A801F0E9FA01A83F21018021
:100ED0000F21418000A8801C03900220049000E0B4
:100EE00041806846059001200690002101A8FFF787
:100EF000BAFD002801D5FF2001E06846007807B060
:100F000000BD00B587B0182101A801F0C7FA01A8FB
:100F10003F210180C2314180E3E0F8B58CB007ACDD
:100F20002070012801D1022500E010251E001700C5
:100F30002A00601C01F0A4FA6D1CE8B227546D1C55
:100F4000E8B226540321684601F0A8FA182101A846
:100F500001F0A4FA01A83F210180C331418007A814
:100F600003906D1CEDB20495684605900320069031
:100F7000002101A8FFF777FD002801D5FF200BE035
:100F800069460878002807D112984A788B781B06A2
:100F90001B0C1A43028000200DB0F0BDF1B590B0DB
:100FA00010A808AC0578257045786570A1700129F6
:100FB00001D1022500E010251A9E199F6846037092
:100FC00011002A00E01C01F05BFAED1C6846007875
:100FD000E9B260546D1C16A80078E9B260546D1C2B
:100FE00017A80078E9B260546D1C18A80078E9B21F
:100FF00060546D1CE8B227546D1CE8B226540321DE
:1010000001A801F04BFA182102A801F047FA02A842
:101010003F210180C531418008A804906D1CEDB2CC
:10102000059501A8069003200790002102A8FFF76C
:101030001AFD002801D5FF200BE001A9087800283F
:1010400007D11B984A788B781B061B0C1A43028029
:10105000002011B0F0BD3BB5A8B01C00A01D812838
:1010600001DB422033E028A807A903780B704378FE
:101070004B7007A829A9831C0D781D704D785D70F1
:101080000271447122002E99801D01F0F9F9182196
:1010900001A801F003FA01A83F210180C731418076
:1010A00007A80390A41DE4B20494684605900120AB
:1010B0000690002101A8FFF7D6FC002801D5FF20EB
:1010C00005E068460078002801D0684600782BB01B
:1010D00030BD418000A8801C0390022004900F20A6
:1010E00002906846059001200690002101A8FFF7B4
:1010F000BAFC002801D5FF2001E06846007807B05F
:1011000000BD00B587B069464880182101A801F0EC
:10111000C5F901A83F210180E831418000A8801C69
:10112000039002200490DCE730B589B01C006B46C8
:10113000187059709A70072101A801F0AFF91821B1
:1011400003A801F0ABF903A83F2101808A21418067
:10115000684605900320069001A807900720089094
:10116000002103A8FFF77FFC002801D5FF201AE02B
:1011700001A80178002901D0084614E00D990C9AC5
:10118000437885782D062D0C2B432380C378047972
:101190002406240C23431380427983791B061B0CFD
:1011A0001A430A80002009B030BD78B589B00E001E
:1011B00015001C0069460870072101A801F06EF9AE
:1011C000182103A801F06AF903A83F2101808A21B0
:1011D0004180684605900120069001A807900720ED
:1011E0000890002103A8FFF73EFC002801D5FF204E
:1011F00018E001A80178002901D0084612E04178E2
:1012000082781206120C11433180C17802791206DD
:10121000120C11432980417982791206120C114374
:10122000218000200AB070BD7FB592B01B9A1DA925
:1012300009780191140061180E31292901D3422047
:1012400058E01A996D466B7008AD287013A86B1C96
:1012500006781E7046785E7014A8EB1C06781E7027
:1012600046785E70684640786871A971EA711C9989
:101270002800083001F004F908341DA80078E1B214
:101280006854641CE4B21DA802781E99281901F064
:10129000F7F8019824181FA8E1B2691802780A70BB
:1012A00042784A70A41CE4B220A8291902780A7076
:1012B00042784A70182102A801F0F0F802A83F21F4
:1012C00001808321418008A80490A41CE4B2059405
:1012D0006846069001200790002102A8FFF7C3FB93
:1012E000002801D5FF2005E068460078002801D0DD
:1012F0006846007816B070BD70B58EB00E00110053
:101300001C0007AD28706E70002E03D01022A81CA0
:1013100001F0B6F8159E13991298AC74E87429750B
:1013200029001531149801F0C1F86E76182101A832
:1013300001F0B4F801A83F2101808621418007A86F
:1013400003901A2004906846059001200690002121
:1013500001A8FFF788FB002801D5FF2005E06846BB
:101360000078002801D0684600780EB070BD18B52E
:101370008FB004002200202A01D3422020E007A8D9
:101380000470401C01F07CF8182101A801F086F8D7
:1013900001A83F2101808E21418007A80390641C91
:1013A000E4B204946846059001200690002101A84B
:1013B000FFF759FB002801D5FF2001E068460078BF
:1013C00010B010BDF8B58AB006AC1B202070C52047
:1013D0006070D520A070A520E07002202071002050
:1013E0006071B421A1719A21E171E1212172112171
:1013F00061720121A172E072E060C44D06A829006B
:101400000C31CCC8CCC100951023012229000C312D
:101410000220FFF782FD00283BD13620A071AC20CE
:10142000E0711420A07306A829001C31CCC8CCC1DF
:10143000A81C059000200490102003900420029026
:10144000002001901220009008232A001C32022163
:101450002888FFF7A3FD00281BD1E020A07306A871
:1014600029001C315CC85CC1281D05900020049037
:101470001020039004200290002001901020009082
:1014800014232A001C3202212888FFF787FD002838
:1014900000D047200BB0F0BD38B58AB006AC1B2099
:1014A0002070C5206070D520A070A520E0700220BB
:1014B000207100216171B422A2719A22E271E122AD
:1014C000227211226272A072E172E1608F4D1022CD
:1014D00006A928000C3000F0D3FFA81D00900423BB
:1014E000012229000C310220FFF717FD002822D12C
:1014F0003620A071AC20E0710120A0726073102230
:1015000006A928001C3000F0BBFF28000830059019
:1015100000200490102003900420029000200190ED
:101520001020009008232A001C320221E888FFF7CF
:1015300035FD002800D047200BB030BDF8B586B08F
:1015400007000C00150001AE00F07CF9C0083070F7
:1015500000F078F9C00A707078684142B17078681C
:1015600041420812F07038683071386800127071AA
:10157000B8684142B171B86841420812F0716068C0
:1015800030726068001270722068B07220680012B9
:10159000F072A0683073A068001270736868B0734E
:1015A00068680012F073286830742868001270743C
:1015B000A868B074A8680012F074544801A900919A
:1015C0001423002281880088FFF745FD002800D001
:1015D000472007B0F0BD3EB5040001AD00F032F980
:1015E000C008287000F02EF9C00A68702068A87042
:1015F00020680012E87060682871606800126871E5
:10160000A068A871A0680012E871404801A9009183
:10161000082300220189C088FFF71DFD002800D0A3
:1016200047203EBDD0B539498A88521C904205D129
:10163000374A38493848FFF781FF3CE04988491C60
:10164000884238D100F004F9060000F001F90700E3
:10165000324C3000C1170522002300F07FF9220030
:10166000002300F094F900F0C7F900222C4B00F0A1
:10167000F1F900F0C3FA2B4900F0F1FA00F048FB51
:1016800006B23800C1176422002300F067F9220077
:10169000002300F07CF900F0AFF90022224B00F0AB
:1016A000D9F900F0ABFA214900F0D9FA00F030FB8B
:1016B000310000F007F81E480088002801D0FFF72D
:1016C00020FDD0BD7FB505000C0001AE00F0BAF8DA
:1016D000C008307000F0B6F8C00A7070B5702812FB
:1016E000F0702814307128167071B4712012F071E6
:1016F000064801A900910823002241880088FFF7CD
:10170000AAFC002800D0472004B070BD9C05002032
:10171000E0050020D4050020C8050020FFFFFF3FA2
:1017200000003B400000204100408F400000C842C4
:101730002200002080B58EB007A800BF3AA11C226D
:1017400000F084FE334907A84A7902750A79427588
:10175000CA7882758A78C2754A78027609784176A5
:10176000817C01220A43827400210020FFF718FBCC
:101770000020069005900490039000BF28A00290DE
:1017800008200190002000900123F022D200C821FF
:10179000C900FFF749FD07A91A20FFF7E8FD0FB0C0
:1017A00000BD0178042900D0704780B54178052933
:1017B00004D03E2905D0FF290FD001BD00F01EF84E
:1017C00001BDC178012918D1417982791206120C24
:1017D0001143093000F019F801BDC17802791206F1
:1017E000120C11430C4A914207D1C179027A1206B8
:1017F000120C11430800FFF715FF01BD0748002137
:101800004160012202704170704704480122426029
:101810004180704700000020140C000020000020D0
:1018200009426C75654E5247020A000809426C7500
:10183000654E52470DFF010200F400000000000059
:101840000000000001484068704700BF28000020E9
:10185000F0B53D480078002859D13B4840683B49E5
:1018600048433B4940183B4900F084FA374841431C
:1018700037480818374900F07DFA34484143344866
:101880000818344900F076FA3048414330480818C7
:10189000304900F06FFA2D4841432D4808182D4972
:1018A00000F068FA2948414329480818294900F0FE
:1018B00061FA2648414326480818264900F05AFA9A
:1018C0002248414322480818224900F053FA1E4892
:1018D0004160214D102604461D4F60681B49484356
:1018E000C0191C4900F046FA61602960174841435D
:1018F000C819184900F03EFA616069600835761E23
:10190000EBD11548C16F80228150012020700E4C10
:1019100060680E4948430E4940180E4900F02AFA03
:1019200061600D4B180080300278D206520E9A1872
:1019300013680360116098008008F0BD024900221E
:101940000A70486070470000380000200D661900DA
:101950005FF36E3CFFFFFF7FB004002030B44343D1
:1019600051435D18010C0C00130C5C432D1980B21F
:10197000434392B251430024C918644124040B0428
:10198000090C09195043C018694130BC7047124214
:1019900024D0994228D970B500251B4202D00C00F2
:1019A000002109E00024012649186441944200D333
:1019B000A41A7641F8D33100012601E0764109D21C
:1019C000001864416D41A41A9D41F7D2A4185D41ED
:1019D000B619F5D3300022002B0070BD1B42D8D1C0
:1019E00008B500F06DFD08BD01D19042D3D20200D0
:1019F0000B00002100207047094218D04422120138
:101A0000094203D4521E00184941FBD5D21E1205CB
:101A1000A4464C05C90A0300C00A604064465B0541
:101A20005B4100D3012B0023584151417047010015
:101A300001E00000010042221201D21E004207D044
:101A400002D4521E0018FCD5C10A4005120589189F
:101A500070470000F0B40125ED070F005F404FD440
:101A60008B4200D1824205D98446100062468C46E2
:101A700019006346DF184C18640D7F0D3AD0661CC0
:101A8000760537D0E61B352E34DCDB022B43DB0A30
:101A90000C0DC9022943C912202E0DDB1700203E70
:101AA00006D01F00F741F3405F400026012A77412E
:101AB000C01871410DD217E01700F741F2405740AE
:101AC000F3415A40B340F3405A4000268018594130
:101AD0000AD3A21C52050FD0C207012F7241170072
:101AE0004008CB0718434908641C24054208AF414D
:101AF00070416141F0BC7047641C21050020F9E78A
:101B00006B400AE06B40ABE7F742F3D1E943F1E702
:101B10002442EFD100200021ECE70C00871A9C4101
:101B200005D2C01BA141D219634169406B40AE0A86
:101B3000DF184C18F442E7D2640D7F0DE8D0E61BA5
:101B4000362ED7DCDB022B43DB0AA4460C0DC90280
:101B50002943C90A012E28DC04D1D6075208DF0721
:101B60003A435B08EF0A76429041994114D03942DA
:101B70003BD1B61940414941761C394204D1761C0B
:101B8000001849413942FAD0B9436746B74208D9EB
:101B9000A41B24052143ADE70042EAD13642E8D137
:101BA000A8E7E40AE1070020A4E7202E0BDD203E91
:101BB0001F00F340F7415F40012A002257417E4257
:101BC000984191410BE01700F741F2405740F34133
:101BD0005A40B340F3405A407E42904199410A0333
:101BE00003D2641EB619404149410027641E2405F2
:101BF0004208AE4178416141F0BC70470122520574
:101C00004B18DA4201D9581570475B0D0722D201F3
:101C10009B1A10D9FF2B1DD2DB050122D2070A40E7
:101C200013430903020D1143490AC200524100D96E
:101C3000491CC81870470AD1800A0A03024352128D
:101C4000921C04D9D3070B40D00518437047C80F26
:101C5000C0077047C80F0002FF30C005704730B49E
:101C600005004D400122D20715404B180418240EE0
:101C70002ED01B0E32D0FF2C34D0FF2B3AD0E418DC
:101C80000002090210431143000A090A9446C2B235
:101C90004A43000AC3B24B43000A4843110A5B1887
:101CA0001A43D2B2190A091801D44918641E080A45
:101CB0007F3C23DBFE2C08DAE4050906114363466A
:101CC00099416041284330BC7047FF20C005F9E7C7
:101CD00028001B0EFF2BF6D1D043F4E72800FF2C81
:101CE000F1D1F9E74002F7D1FF2B01D14902F3D13D
:101CF000E005E7E7D8054902E4D0EDE7430200201C
:101D0000641CDFD15B129B1CDCD9D805DAE7FEE747
:101D10000122D2070118090E7F3910D449421F3120
:101D20000FD4001805D2C0011043C84000D5D043DD
:101D30007047C0011043C84005D44042704700209E
:101D400070470042F3D510007047FEE7CA0F00D07D
:101D5000494203105A400DD004B500D3404200F070
:101D600009F8009AD20701D34942124200D54042F5
:101D700004BD0000094214D088420FD30122030C95
:101D800001D100041204002300185B418B4200D3F0
:101D90005B1A5241F8D3190010007047010000206F
:101DA000704708B500F08EFB08BDFEE7FFB50022C6
:101DB000012301932AE0052602E0974FB842FAD1A9
:101DC000AE402643029C2660944C2668DC432640A5
:101DD0004D68ED0300D51E43904D2E606E68264081
:101DE0004F68BF0300D51E436E60AE6826404F6843
:101DF000FF0200D51E43AE60EE6834404E68B60266
:101E000002D526001C003443EC60521C0B681C00F9
:101E1000D44000D183E0019D95402B40F5D0540083
:101E20000327A740FE4302964E68012E05D0022EDE
:101E300003D0112E01D0122E0FD18768029E3E4092
:101E4000CF68A740374387604668AE434D682D0989
:101E5000019F2F40974037434760C568029E2E4040
:101E60008D68A5403543C56095006E4675704D6818
:101E7000022D01D0122D1AD1D508AD0045192E6AB8
:101E800003966E4677781C263E406F463E70039E52
:101E9000B4460F276E463678B7406646BE43B44612
:101EA0000F696E463678B740664637432F6207683B
:101EB0000326029D3D404F683740BC4627006446DC
:101EC000BC402C4304604C68E4009ED5544C24680C
:101ED000019D2543524C25602468019D25400295B3
:101EE000029C504C9508AD006419029424686D461C
:101EF0006F780C253D400F27AF40BC439027FF056E
:101F0000B84201D100265BE7474FB84201D1019E9C
:101F100056E7464FB84200D04FE7022650E7FFBDD4
:101F2000FFB50323029301230193039100213AE0BB
:101F3000052703E0384DA842FAD1029F8D00B44630
:101F40000C262E40B740BC4511D1D643334A126807
:101F50003240324F3A607A6832407A60BA68324032
:101F6000BA60FA681640FE601A68A2431A60029BC3
:101F70004A009340DA43036813400360CB089B0098
:101F8000C3181C6A0F261C272F40BE40B4431C6296
:101F9000C3681340C3604368009CA34343608368E5
:101FA0001A408260491C039ACA4020D0019A8A4094
:101FB0000092039B1A40F5D01A4B8C08A4001B1901
:101FC0001E680F248D000C272F40BC402640902512
:101FD000ED05A84201D10027B0E7134DA84201D179
:101FE000019FABE7114DA842A4D10227A6E7FFBD90
:101FF0000069084000D00120C0B27047002A01D01B
:10200000816170478162704742690B0013401B0475
:102010009143194381617047000C0048000401405E
:102020001810024008000140000400480008004861
:1020300010B50400080011000200200000F030FA82
:10204000200010BD03000020002901D15A60704714
:1020500001207047002801D1012070470160002055
:10206000704701210278D206D20E9140054A1368CA
:102070000B4000D1704780B511604068002800D047
:10208000804701BD1404014010B5C200182313405D
:10209000FF249C40E2438907090E9940030004D4C1
:1020A00018489B089B00C01806E0174B0007000F5C
:1020B000083880088000181803681A40114301602E
:1020C00010BD80B5FFF7E0FF01BD010005D401217F
:1020D000C006C00E81400D480160704710B5401E1B
:1020E00080214904884201D3012010BD084C606062
:1020F00003210020C043FFF7C7FF0020A060072195
:10210000216010BD00E400E01CED00E000E100E013
:1021100010E000E010B5002100240A4A0260E1222C
:10212000520242608160C16001610C2242618161A2
:10213000C1610162416200F0C7F9002800D00124AA
:10214000200010BD00440040006040607047EFF385
:10215000108172B60268824201D1012000E00020A5
:1021600081F310887047EFF3108272B603680B603A
:1021700048600160086841603DE0EFF3108272B68C
:10218000086043684B6041604868016033E0EFF3EA
:10219000108172B6026843681A6042680068426043
:1021A00081F31088704738B50C00EFF3108572B6D4
:1021B00001682160006807E038B50C00EFF3108576
:1021C00072B6416821604068FFF7E1FF0020216896
:1021D00008602168486085F3108831BD0100002047
:1021E000EFF3108272B60B6801E0401C1B688B4253
:1021F000FBD100E0086082F31088704770B586B0AC
:10220000802080027B490A6802430A60096808400E
:1022100005900598012400947748019000250295C7
:102220009026F60569463000FFF7C0FD20020090B9
:1022300001940295039569463000FFF7B7FD02202F
:10224000009001940295039569463000FFF7AEFDBA
:1022500000F004FB06B070BD10B59024E405012128
:102260002000FFF75DFE02212000FFF759FE8021CC
:1022700049002000FFF754FE002010BD38B590241F
:10228000E405012202212000FFF7B8FE80256D0041
:10229000002229002000FFF7B1FE0520FEF7C4FD53
:1022A000012229002000FFF7A9FE0520FEF7BCFD52
:1022B000002032BDF0B585B007000C000026FF20DD
:1022C0006946487003A800BF5CA10CC90CC000227D
:1022D00002219020C005FFF791FE052201A903A865
:1022E00000F015FB01A90878022818D1087900022E
:1022F000C978084313D0844200DA20000024060085
:1023000009E00122694600A8401C00F000FB684675
:1023100000787855641CE5B2B542F2DB2600012254
:1023200002219020C005FFF769FEF0B205B0F0BDB4
:10233000F0B585B004000E0002A800BF41A10CC991
:102340000CC0FFF77FFA6D460494070000240022BA
:1023500002219020C005FFF751FE0522694602A820
:1023600000F0D5FA2878022809D16878B04205D360
:1023700032002249049800F0CAFA01E00124E44343
:10238000012202219020C005FFF738FEFFF75AFA1C
:10239000C01B102802D2002CD8D401E00224E44350
:1023A000200005B0F0BD18B587B01548009015485D
:1023B000019015480490154803901548029015485F
:1023C00006906846FEF743FB134CC021C904200069
:1023D000FFF740FE114A00212000FFF733FE0022E4
:1023E00000210520FFF76DFE0520FFF76EFE08B007
:1023F00010BD000014100240000011102C0300203A
:10240000FD2100085922000831230008B5220008E8
:102410007D22000841290008F80500202124000839
:1024200080B501219020C005FFF7E2FD012804D10D
:102430000020FEF707FC0028F3D001BD0B000000D0
:10244000000000000A0000000000000070B4103A14
:1024500003D378C9103A78C0FBD2530701D318C907
:1024600018C001D508C908C0D20704D30B8803805F
:10247000891C801C002A01D50B78037070BC704742
:102480008B0701D18307E1D0124205D00B78491C9C
:102490000370401C521EF9D17047FEE7002200BFB6
:1024A000094202D0491E4254FCD17047844608704C
:1024B000000A4870000A8870000AC87060467047B9
:1024C0007047FEE77047FEE738B5040014D02500DA
:1024D00074356868002803D12870200000F0BCF92A
:1024E0002420686020680168012291430160200077
:1024F00000F020F8012801D1012032BD606A0028D7
:1025000002D0200000F09BF820684168084A0A4089
:10251000426020688168082291438160FFE720685B
:10252000016801220A430260200000F0EFF832BD8A
:10253000FFF7FFFFF8B505000026002428680168B2
:102540008A4A0A40A96811432A690A436969114302
:10255000EA690A4302604168854A0A40E968114312
:1025600041608168834A0A40A96911432A6A0A4383
:1025700082601022804988420FD1A94800688007F4
:10258000800F0DD0022806D003D3032809D10222E0
:1025900007E0042205E0082203E0A249884200D1B6
:1025A0000022A14FA14880210902EB698B4222D170
:1025B000002A06D0022A19D0042A19D0082A04D0E9
:1025C00038E000F05CFC010035D06A684800510832
:1025D00040181100FFF7CEFB80B201001039B9425C
:1025E00028D207400007400F38431BE00100ECE70A
:1025F00000F028FCE7E7002A06D0022A08D0042AC7
:1026000013D0082A14D015E000F039FC002812D0AD
:1026100069684A088018FFF7ADFB80B201001039E5
:10262000B94207D22968C86005E000F00BFCEDE76D
:102630000800EDE701246E66AE662000F2BD24219D
:10264000415CC90706D501684A68794B1340826A24
:102650001A434A602421415C890706D501684A680B
:10266000744B1340C26A1A434A602421415C4907F3
:1026700006D501684A68704B1340026B1A434A60E2
:102680002421415C090706D501684A686B4B134059
:10269000426B1A434A602421415CC90606D5016891
:1026A0008A68674B1340826B1A438A602421415C1D
:1026B000890606D501688A68134B1340C26B1A431A
:1026C0008A602421415C490611D501684A685D4B46
:1026D0001340026C1A434A60026C80235B039A42E7
:1026E00005D14A68584B1340426C1A434A60242172
:1026F000415C090606D501684A68544B1340806C5A
:102700001843486070470000FFDFFFFFF8B5040082
:1027100000257430C560FFF795F807004C4E20681F
:102720000068000709D500963B000022802189033C
:10273000200000F023F800280DD120680068400731
:102740000BD500963B0000228021C903200000F039
:1027500015F8002801D00320F2BD2100743120209B
:102760004860886025660D700020F2BDF369FFFFA8
:10277000FFCFFFFFFFF4FFFF00380140FEB5089FC9
:10278000802424010025060001916846027002930E
:102790003068C069019901400198814201D101204E
:1027A00000E0002069460978884236D10020C04305
:1027B0008742EDD0FFF746F80299401A874201D3CD
:1027C000002F11D130680168224A0A400260306847
:1027D0008168012291438160300074302021416082
:1027E000816005700320FEBD306801684907CFD5C0
:1027F000C1692140CCD0046230680168154A0A40A2
:102800000260306881680122914381603000743039
:10281000202141608160C160E3E70020FEBD00002F
:102820003010024000440040F0FF000000127A0027
:10283000FFFFFDFFFFFFFEFFFFFFFBFFFF7FFFFF2F
:10284000FFEFFFFFFFFFEFFFFFFF9FFFFFFFF7FF20
:10285000FFFFFF015FFEFFFF7047FEE7F0B587B0A7
:1028600000240594324F33483860786E411C7966F5
:10287000002849D1380000F0DFFC002844D12E4860
:10288000810C42680A4342604268114006910699F1
:102890008021890202680A430260026811400691A1
:1028A00006998021C90202680A430260006801405B
:1028B0000691069840200090022601960294032576
:1028C0000395049469469020C005FFF76FFA8020B5
:1028D0000090019602940395049469469020C005E7
:1028E000FFF764FA0820009001960294039504947F
:1028F00069461248FFF75AFA380000F025F8002818
:1029000002D00720C0430590059807B0F0BD1CB564
:10291000130000248022520100920A0001000448A2
:1029200000F062FB002801D00524E443200016BD1E
:10293000340500200030014014100240000400481B
:1029400080B5FEF77FFF02BD10B5002100240F4ABD
:1029500002608222520042608160E022D200C260A6
:1029600001614161802292008261C1610162416224
:1029700081620722C26201630821416300F0B0FA5C
:10298000002800D00124200010BD00BF003001400D
:10299000FEB5060019D0A54C3078C00717D58027A2
:1029A000BF0260680C210140042909D060680C2135
:1029B0000140082946D1606879080840884241D121
:1029C0002068074003D07068002800D1AEE10220E3
:1029D00000903068022101401BD0F827FF43606857
:1029E0000C21014007D060680C21014008295FD10B
:1029F0006068C0035CD420680221014003D0F06805
:102A0000012800D092E1206807403069C0003843B7
:102A100020603078000700D47EE0F0690028606A0A
:102A20006AD0012101436162FEF70CFF0500606A74
:102A30000099014070D1FEF705FF401B0228F6D92E
:102A40000320FEBD7168012902D1206879080BE0DE
:102A5000B848B94A00290AD0052908D12068790068
:102A6000014321602068D1430143216005E02168D2
:102A70000A402260216808402060706800280BD05E
:102A8000FEF7E0FE050020683840A0D1FEF7DAFE30
:102A9000401B6528F7D3D3E7FEF7D4FE0500206876
:102AA000384094D0FEF7CEFE401B6528F7D3C7E729
:102AB000F068002820680FD0012101432160FEF753
:102AC000C1FE05002068009901409CD1FEF7BAFEC6
:102AD000401B0228F6D9B3E7012188432060FEF7A6
:102AE000B1FE050020680099014092D0FEF7AAFED1
:102AF000401B0228F6D9A3E7012188436062FEF754
:102B0000A1FE0500606A0099014005D0FEF79AFE1B
:102B1000401B0228F6D993E704273068384068D074
:102B200000200290B806E169014008D1E169014343
:102B3000E161E169084001900198012002907F481D
:102B40000068C00512D47D480068A10D01437B4890
:102B50000160FEF777FE050078480068C00505D4DF
:102B6000FEF770FE401B6528F6D369E7B1680129BE
:102B700001D1206A0CE00420C0430122D243002985
:102B800009D0052907D1206A38432062206A012133
:102B90000143216205E0216A0A402262216A08405D
:102BA0002062A6480190B06800280DD0FEF74AFECA
:102BB0000500206A0099014014D1FEF743FE401B36
:102BC00001998842F5D33BE7FEF73CFE0500206AF9
:102BD0000099014006D0FEF735FE401B019988425E
:102BE000F5D32DE70298002803D0E069944901400D
:102BF000E1613078C00621D57069F825ED430128E0
:102C000038D1606B07436763606B012101436163E7
:102C1000FEF718FE0700606B0099014008D1FEF72F
:102C200011FEC01B0228F6D90AE700BF00100240BF
:102C3000606B0540B069C00028436063306A0028BB
:102C400076D061680C220A40082A5AD08027BF0437
:102C500090490228206846D101402160FEF7F2FD2C
:102C600005002068384020D0FEF7ECFD401B02280C
:102C7000F7D9E5E60421C9438842606B02D1B84325
:102C80006063D5E707436763606B01218843606336
:102C9000FEF7D8FD0500606B00990140CED0FEF72D
:102CA000D1FD401B0228F6D9CAE6E06A0F2188430D
:102CB000F16A0143E162606877490140B06A084304
:102CC000716A014361602068790801432160FEF761
:102CD000B9FD0500206838402AD1FEF7B3FD401B3E
:102CE0000228F7D9ACE601402160FEF7ABFD0500F4
:102CF000206838401CD0FEF7A5FD401B0228F7D9FC
:102D00009EE6012812D06068E16A802252020240E9
:102D1000736A9A420AD10907090FF26A914205D1F2
:102D2000F02189030140B06A814201D00120FEBD3B
:102D30000020FEBDFFFFFBFFFFFFFEFF0070004015
:102D4000F8B5040060D0009154480068C107C90F6D
:102D5000009881420CD25148016801229143009AA7
:102D60000A4302600068C107C90F009881424BD135
:102D700021684B4D022001420CD0490704D56968F7
:102D8000E022D2000A436A606968F0229143A26897
:102D90000A436A6001272168394025D0616801290A
:102DA00002D12868800303E0022903D1286880014A
:102DB00003D429E02A68104026D068680322904393
:102DC00001436960FEF73EFD060068680C21014082
:102DD00060688000814207D0FEF734FD801B1749F0
:102DE0008842F2D30320F2BD2C48009902683A4091
:102DF00091420BD20168B943009A0A43026000680D
:102E000007400098874201D00120F2BD207840079A
:102E100005D5686823490140E0680843686000F010
:102E200011F821496A681206120F895CC8401F49CF
:102E30000860002000F0FEFA0020F2BD89130000B7
:102E4000FFFFFFEF1A4B19681A480C220A40082AA4
:102E500000D0704730B50F2219A48D0C1540645D69
:102E60009B6AC90307D500BF19A11A40895CFEF708
:102E700081FF604330BD20000F49484330BD0B48FF
:102E800000680E490A4A12685205520F895CC84010
:102E900070470000FFFFFFFEFFFFC2FF002002405F
:102EA00000100240FFF8FFFF303700083400002018
:102EB0000410024000127A0000093D005C3700084F
:102EC00002030405060708090A0B0C0D0E0F10106B
:102ED0000102030405060708090A0B0C0D0E0F106A
:102EE000F8B5040001D10120F2BD82277F00002542
:102EF000606A002804D16068B84203D0E56101E04F
:102F000025616561A56226005C367078002803D1D2
:102F10003570200000F08CFA022070702068016883
:102F2000402291430160E368E022D200F0200001DA
:102F3000934203D90021834204D104E08021490156
:102F4000934200D0A562012263681F40BC46A76877
:102F500084231B023B4067463B439C46277C02235D
:102F60001F4063461F43636913403B439C46A76968
:102F700053021F4063461F43BC46277F38233B4014
:102F800067463B439C462023E75C80231F40634603
:102F90001F43BC46A36A57033B4067463B43276831
:102FA0003B60A3691F0C04231F40BC462423E35C41
:102FB00010273B4067463B439C463423E75C08238D
:102FC0001F4063461F43E3681840384301432068AD
:102FD00041602068C169034B0B40C361756072702A
:102FE0000020F2BDFFF7FFFFF3B585B00400170026
:102FF0000120049000206946087020004430007EC3
:10300000012801D1022010E11D00260044360120D4
:103010003076FEF717FC0390717E280002220192A1
:1030200001290BD0626882235B009A4204D1A26816
:10303000002A01D1042901D002208DE0069900293F
:1030400003D0002F01D02A0001D1012084E0727E3C
:10305000042A01D005227276002223004433DA616B
:1030600027642200443255804422A552A163E5879B
:10307000A587002122004432916022004432D160B1
:1030800022686B49E3688B42536805D3014D1D40AC
:1030900005E000BFFFEFFFFF80256D011D43556078
:1030A0002268402315681D4002D115682B43136028
:1030B00063680022D24302920C9AE5688D424ED397
:1030C000002B01D0012809D1A06B00882168C860BD
:1030D000A06B801CA063E08F401EE0870C92049ED2
:1030E000039DE08F002804D1200044304088002850
:1030F0004DD020688168019A0A400ED0E18F0029E6
:103100000BD0002E09D0A16B0988C160A06B801C78
:10311000A063E08F401EE0870026226801209168AE
:1031200001400ED0210044314B88002B09D0D268D9
:10313000236C1A80226C921C22644A88521E4A8098
:103140000126FEF77FFB401B0C998842C9D3084635
:1031500002998842C5D00320694608705DE0002BC3
:1031600001D0012809D1A06B007821680873A06BF9
:10317000401CA063E08F401EE0870C92049E039DDC
:10318000E08F002804D1200044304088002836D049
:10319000216828488A68019B13400ED0E28F002ADC
:1031A0000BD0002E09D0A26B12780A73A16B491CB8
:1031B000A163E18F0918E1870026216801228B684D
:1031C00013400ED0230044335F88002F09D0097BC1
:1031D000266C3170216C491C21645988081858806C
:1031E0000126FEF72FFB401B0C998842084603D3AB
:1031F00002998842AFD1C3E70028C1D1ABE70C994F
:103200002A00200000F0EEF8002806D001206946D0
:103210000870202021004431C86120004430012181
:103220004176002101766846007807B0F0BD0000C5
:1032300001070000FFFF00005D21405C7047FEB504
:1032400082B006000A9C1D46FEF7FCFA281A0719F0
:10325000FEF7F8FA614909684901090D79430091BF
:1032600001240025019006E00098002800D10027E5
:103270000098401E009030688068029901400298D2
:10328000814201D1012000E000206946097B88428B
:1032900035D004980021C9438842ECD0FEF7D2FA19
:1032A0000199401AB84201D2002FDDD1306841683F
:1032B000E0229143416070688221490088420BD12D
:1032C000B068E103884202D04909884204D13068DD
:1032D00001684022914301606003B16A814208D1D4
:1032E00031680A683E4B13400B6031680A6810432E
:1032F000086030005C3044700570032000E000205E
:1033000005B0F0BDFCB583B005000E000A9C1F4659
:10331000FEF798FA381A00190190FEF793FA01990E
:103320002E4A126823235A43120D51430091002460
:103330000296039F019E019006E00098002800D1AC
:1033400000260098401E009028688168029A0A4072
:10335000BA4240D00299C022D200914202D1002F3D
:1033600000D1007B04980021C9438842ECD0FEF7CD
:1033700069FA0199401AB04201D2002EDDD12868C5
:103380004168E02291434160686882214900884297
:103390000CD1A86880210902884202D049098842DC
:1033A00004D1286801684022914301608020800197
:1033B000A96A814208D129680A68094B13400B6049
:1033C00029680A681043086028005C3001214170B8
:1033D0000470032000E0002005B0F0BD34000020A0
:1033E000FFDFFFFFF8B504000F0016002025009650
:1033F0003B000022C0214901FFF784FF002812D1C1
:1034000000963B00002280212000FFF718FF0028D3
:1034100009D100963B000022C021C9002000FFF71F
:1034200071FF002803D0206E054325660320F2BDFE
:103430007047FEE738B505000D4CFA208000217872
:10344000FEF798FC01000B480068FEF793FCFEF7BE
:1034500045FE00280AD1042D08D2002229000020B0
:10346000C043FEF72EFEA560002032BD012032BD14
:103470002800002034000020F8B586B000F08AF85B
:1034800000F05EF81422002101A8FEF7D1FD802192
:103490000903294802680A4302600268114000914A
:1034A00000998021C90302680A4302600268114042
:1034B000009100998021890202680A430260026833
:1034C0001140009100998021C90202680A430260FC
:1034D0000068014000910098812676009027FF0542
:1034E000002231003800FEF789FD012401941348C1
:1034F00002900025039501A93800FEF757FC0196BC
:1035000002940395049501A93800FEF74FFC0022B0
:1035100000210520FEF7D5FD0520FEF7D6FD00228F
:1035200000210720FEF7CDFD0720FEF7CEFDFCF7BA
:10353000C1FDFCF743FEFCE714100240000011102F
:1035400010B590B03022002104A8FEF771FD1022C2
:1035500000216846FEF76CFD0220049001200790D0
:103560001020089000240C9404A8FFF711FA0028FA
:1035700001D072B6FEE707200090019402940394F4
:1035800000216846FFF7DCFB002801D072B6FEE799
:1035900010B010BD80B50648016810220A430260D1
:1035A0000020FFF747FF00F005F8002002BD0000F3
:1035B0000020024081B0012009490A6802430A60E4
:1035C0000A68104000900098802040054A68024335
:1035D0004A60496808400090009801B0704700BFF9
:1035E0001810024070B40123002413E00168001D8C
:1035F000194202D04D466D1E49190C60091D121F5B
:10360000042AFAD20D00960701D50C80AD1C1A4091
:1036100000D02C700268001D002AE7D170BC7047F2
:1036200030B501684118446862088A188368E40765
:1036300004D54C461B1901E0641C06D191420BD005
:103640000C7864B2491C0D78491C1D705B1C002C61
:10365000F2D4641EF7D5F1E70C3030BDFEE7FEE78B
:103660007047704780B500F00FF801BD80B5044881
:10367000FEF7F7FC01BD80B50248FEF7F2FC01BD84
:10368000F8050020140000200248416802788918DB
:10369000416070472800002010B50749794418316F
:1036A000064C7C44163404E0081D0A6889188847D3
:1036B0000100A142F8D110BD080000002400000064
:1036C00025FFFFFFC80500004000002000000000AB
:1036D00051FFFFFFAA00000054000000000000207E
:1036E00000F00DF8002801D0FFF7D6FF00BF00BFA3
:1036F000002000BF00BFFFF7BFFE00F002F801206E
:10370000704780B500F002F801BDFEE70746384675
:1037100000F002F8FBE7FEE780B500BF00BF024AF9
:1037200011001820ABBEFBE7260002007047000026
:103730000000000000000000010203040607080961
:1037400001488047014800472D37000851370008DD
:1037500000BF00BF00BF00BFFFF7C2FF00000000B6
:1037600001020304FEE7FEE7FEE7FEE7FEE7FEE7F1
:10377000FEE7FEE7FEE7FEE7FEE7FEE7FEE7F7000F
:103780000001FB000848000800480D000006FB008F
:103790000344004001F9000001F9000004FC0001AD
:0837A000127AFB000001FD009C
:040000050800375167
:00000001FF
